{
  "_format": "hh3-artifact-1",
  "contractName": "AmuletStaking",
  "sourceName": "contracts/AmuletStaking.sol",
  "abi": [
    {
      "inputs": [
        {
          "internalType": "address",
          "name": "_amuletToken",
          "type": "address"
        }
      ],
      "stateMutability": "nonpayable",
      "type": "constructor"
    },
    {
      "inputs": [],
      "name": "AlreadyStaking",
      "type": "error"
    },
    {
      "inputs": [],
      "name": "NotStaking",
      "type": "error"
    },
    {
      "inputs": [
        {
          "internalType": "address",
          "name": "owner",
          "type": "address"
        }
      ],
      "name": "OwnableInvalidOwner",
      "type": "error"
    },
    {
      "inputs": [
        {
          "internalType": "address",
          "name": "account",
          "type": "address"
        }
      ],
      "name": "OwnableUnauthorizedAccount",
      "type": "error"
    },
    {
      "inputs": [],
      "name": "ReentrancyGuardReentrantCall",
      "type": "error"
    },
    {
      "inputs": [
        {
          "internalType": "address",
          "name": "token",
          "type": "address"
        }
      ],
      "name": "SafeERC20FailedOperation",
      "type": "error"
    },
    {
      "inputs": [],
      "name": "StakePeriodNotEnded",
      "type": "error"
    },
    {
      "inputs": [],
      "name": "TransferFailed",
      "type": "error"
    },
    {
      "inputs": [],
      "name": "ZeroAmount",
      "type": "error"
    },
    {
      "anonymous": false,
      "inputs": [
        {
          "indexed": true,
          "internalType": "address",
          "name": "user",
          "type": "address"
        },
        {
          "indexed": false,
          "internalType": "uint256",
          "name": "amount",
          "type": "uint256"
        }
      ],
      "name": "EmergencyWithdraw",
      "type": "event"
    },
    {
      "anonymous": false,
      "inputs": [
        {
          "indexed": true,
          "internalType": "address",
          "name": "previousOwner",
          "type": "address"
        },
        {
          "indexed": true,
          "internalType": "address",
          "name": "newOwner",
          "type": "address"
        }
      ],
      "name": "OwnershipTransferred",
      "type": "event"
    },
    {
      "anonymous": false,
      "inputs": [
        {
          "indexed": true,
          "internalType": "address",
          "name": "user",
          "type": "address"
        },
        {
          "indexed": false,
          "internalType": "uint256",
          "name": "amount",
          "type": "uint256"
        },
        {
          "indexed": false,
          "internalType": "uint256",
          "name": "creditsGranted",
          "type": "uint256"
        },
        {
          "indexed": false,
          "internalType": "uint256",
          "name": "expiresAt",
          "type": "uint256"
        }
      ],
      "name": "Staked",
      "type": "event"
    },
    {
      "anonymous": false,
      "inputs": [
        {
          "indexed": true,
          "internalType": "address",
          "name": "user",
          "type": "address"
        },
        {
          "indexed": false,
          "internalType": "uint256",
          "name": "amount",
          "type": "uint256"
        },
        {
          "indexed": false,
          "internalType": "uint256",
          "name": "creditsForfeited",
          "type": "uint256"
        }
      ],
      "name": "Unstaked",
      "type": "event"
    },
    {
      "inputs": [],
      "name": "CREDITS_PER_TOKEN",
      "outputs": [
        {
          "internalType": "uint256",
          "name": "",
          "type": "uint256"
        }
      ],
      "stateMutability": "view",
      "type": "function"
    },
    {
      "inputs": [],
      "name": "CREDIT_MULTIPLIER",
      "outputs": [
        {
          "internalType": "uint256",
          "name": "",
          "type": "uint256"
        }
      ],
      "stateMutability": "view",
      "type": "function"
    },
    {
      "inputs": [],
      "name": "STAKE_DURATION",
      "outputs": [
        {
          "internalType": "uint256",
          "name": "",
          "type": "uint256"
        }
      ],
      "stateMutability": "view",
      "type": "function"
    },
    {
      "inputs": [],
      "name": "amuletToken",
      "outputs": [
        {
          "internalType": "contract IERC20",
          "name": "",
          "type": "address"
        }
      ],
      "stateMutability": "view",
      "type": "function"
    },
    {
      "inputs": [
        {
          "internalType": "uint256",
          "name": "amount",
          "type": "uint256"
        }
      ],
      "name": "calculateCredits",
      "outputs": [
        {
          "internalType": "uint256",
          "name": "",
          "type": "uint256"
        }
      ],
      "stateMutability": "pure",
      "type": "function"
    },
    {
      "inputs": [],
      "name": "emergencyUnstake",
      "outputs": [],
      "stateMutability": "nonpayable",
      "type": "function"
    },
    {
      "inputs": [
        {
          "internalType": "address",
          "name": "user",
          "type": "address"
        }
      ],
      "name": "getStakeInfo",
      "outputs": [
        {
          "internalType": "uint256",
          "name": "amount",
          "type": "uint256"
        },
        {
          "internalType": "uint256",
          "name": "stakedAt",
          "type": "uint256"
        },
        {
          "internalType": "uint256",
          "name": "creditsGranted",
          "type": "uint256"
        },
        {
          "internalType": "uint256",
          "name": "expiresAt",
          "type": "uint256"
        },
        {
          "internalType": "bool",
          "name": "active",
          "type": "bool"
        }
      ],
      "stateMutability": "view",
      "type": "function"
    },
    {
      "inputs": [
        {
          "internalType": "address",
          "name": "user",
          "type": "address"
        }
      ],
      "name": "isStaking",
      "outputs": [
        {
          "internalType": "bool",
          "name": "",
          "type": "bool"
        }
      ],
      "stateMutability": "view",
      "type": "function"
    },
    {
      "inputs": [],
      "name": "owner",
      "outputs": [
        {
          "internalType": "address",
          "name": "",
          "type": "address"
        }
      ],
      "stateMutability": "view",
      "type": "function"
    },
    {
      "inputs": [],
      "name": "renounceOwnership",
      "outputs": [],
      "stateMutability": "nonpayable",
      "type": "function"
    },
    {
      "inputs": [
        {
          "internalType": "uint256",
          "name": "amount",
          "type": "uint256"
        }
      ],
      "name": "stake",
      "outputs": [],
      "stateMutability": "nonpayable",
      "type": "function"
    },
    {
      "inputs": [
        {
          "internalType": "address",
          "name": "",
          "type": "address"
        }
      ],
      "name": "stakes",
      "outputs": [
        {
          "internalType": "uint256",
          "name": "amount",
          "type": "uint256"
        },
        {
          "internalType": "uint256",
          "name": "stakedAt",
          "type": "uint256"
        },
        {
          "internalType": "uint256",
          "name": "creditsGranted",
          "type": "uint256"
        },
        {
          "internalType": "bool",
          "name": "active",
          "type": "bool"
        }
      ],
      "stateMutability": "view",
      "type": "function"
    },
    {
      "inputs": [
        {
          "internalType": "address",
          "name": "user",
          "type": "address"
        }
      ],
      "name": "timeUntilUnstake",
      "outputs": [
        {
          "internalType": "uint256",
          "name": "",
          "type": "uint256"
        }
      ],
      "stateMutability": "view",
      "type": "function"
    },
    {
      "inputs": [],
      "name": "totalStaked",
      "outputs": [
        {
          "internalType": "uint256",
          "name": "",
          "type": "uint256"
        }
      ],
      "stateMutability": "view",
      "type": "function"
    },
    {
      "inputs": [
        {
          "internalType": "address",
          "name": "newOwner",
          "type": "address"
        }
      ],
      "name": "transferOwnership",
      "outputs": [],
      "stateMutability": "nonpayable",
      "type": "function"
    },
    {
      "inputs": [],
      "name": "unstake",
      "outputs": [],
      "stateMutability": "nonpayable",
      "type": "function"
    }
  ],
  "bytecode": "0x60a060405234801562000010575f80fd5b506040516200165d3803806200165d833981810160405281019062000036919062000224565b335f73ffffffffffffffffffffffffffffffffffffffff168173ffffffffffffffffffffffffffffffffffffffff1603620000aa575f6040517f1e4fbdf7000000000000000000000000000000000000000000000000000000008152600401620000a1919062000265565b60405180910390fd5b620000bb81620000fe60201b60201c565b50600180819055508073ffffffffffffffffffffffffffffffffffffffff1660808173ffffffffffffffffffffffffffffffffffffffff16815250505062000280565b5f805f9054906101000a900473ffffffffffffffffffffffffffffffffffffffff169050815f806101000a81548173ffffffffffffffffffffffffffffffffffffffff021916908373ffffffffffffffffffffffffffffffffffffffff1602179055508173ffffffffffffffffffffffffffffffffffffffff168173ffffffffffffffffffffffffffffffffffffffff167f8be0079c531659141344cd1fd0a4f28419497f9722a3daafe3b4186f6b6457e060405160405180910390a35050565b5f80fd5b5f73ffffffffffffffffffffffffffffffffffffffff82169050919050565b5f620001ee82620001c3565b9050919050565b6200020081620001e2565b81146200020b575f80fd5b50565b5f815190506200021e81620001f5565b92915050565b5f602082840312156200023c576200023b620001bf565b5b5f6200024b848285016200020e565b91505092915050565b6200025f81620001e2565b82525050565b5f6020820190506200027a5f83018462000254565b92915050565b6080516113af620002ae5f395f81816104650152818161067f015281816108f201526109a601526113af5ff3fe608060405234801561000f575f80fd5b50600436106100fe575f3560e01c8063817b1cd211610095578063baf51fe311610064578063baf51fe314610265578063c345315314610283578063f19d9b8c146102b7578063f2fde38b146102e7576100fe565b8063817b1cd2146101ef5780638b7e48e91461020d5780638da5cb5b1461022b578063a694fc3a14610249576100fe565b80636afb630a116100d15780636afb630a1461018d5780636f49712b146101ab578063715018a6146101db5780637589cf2f146101e5576100fe565b8063019fd52f1461010257806316934fc4146101205780632def6620146101535780634652cb901461015d575b5f80fd5b61010a610303565b6040516101179190610f33565b60405180910390f35b61013a60048036038101906101359190610faa565b610308565b60405161014a9493929190610fef565b60405180910390f35b61015b610340565b005b6101776004803603810190610172919061105c565b610505565b6040516101849190610f33565b60405180910390f35b610195610526565b6040516101a29190610f33565b60405180910390f35b6101c560048036038101906101c09190610faa565b61052e565b6040516101d29190611087565b60405180910390f35b6101e3610583565b005b6101ed610596565b005b6101f7610720565b6040516102049190610f33565b60405180910390f35b610215610726565b6040516102229190610f33565b60405180910390f35b61023361072b565b60405161024091906110af565b60405180910390f35b610263600480360381019061025e919061105c565b610752565b005b61026d6109a4565b60405161027a9190611123565b60405180910390f35b61029d60048036038101906102989190610faa565b6109c8565b6040516102ae95949392919061113c565b60405180910390f35b6102d160048036038101906102cc9190610faa565b610a8a565b6040516102de9190610f33565b60405180910390f35b61030160048036038101906102fc9190610faa565b610b5d565b005b600a81565b6002602052805f5260405f205f91509050805f015490806001015490806002015490806003015f9054906101000a900460ff16905084565b610348610be1565b5f60025f3373ffffffffffffffffffffffffffffffffffffffff1673ffffffffffffffffffffffffffffffffffffffff1681526020019081526020015f209050806003015f9054906101000a900460ff166103cf576040517f890fec5200000000000000000000000000000000000000000000000000000000815260040160405180910390fd5b6301e1338081600101546103e391906111ba565b42101561041c576040517f1007d7dc00000000000000000000000000000000000000000000000000000000815260040160405180910390fd5b5f815f015490505f826003015f6101000a81548160ff0219169083151502179055505f825f01819055508060035f82825461045791906111ed565b925050819055506104a933827f000000000000000000000000000000000000000000000000000000000000000073ffffffffffffffffffffffffffffffffffffffff16610c279092919063ffffffff16565b3373ffffffffffffffffffffffffffffffffffffffff167f7fc4727e062e336010f2c282598ef5f14facb3de68cf8195c2f23e1454b2b74e825f6040516104f1929190611259565b60405180910390a25050610503610ca6565b565b5f6002600a836105159190611280565b61051f9190611280565b9050919050565b6301e1338081565b5f60025f8373ffffffffffffffffffffffffffffffffffffffff1673ffffffffffffffffffffffffffffffffffffffff1681526020019081526020015f206003015f9054906101000a900460ff169050919050565b61058b610caf565b6105945f610d36565b565b61059e610be1565b5f60025f3373ffffffffffffffffffffffffffffffffffffffff1673ffffffffffffffffffffffffffffffffffffffff1681526020019081526020015f209050806003015f9054906101000a900460ff16610625576040517f890fec5200000000000000000000000000000000000000000000000000000000815260040160405180910390fd5b5f815f015490505f826002015490505f836003015f6101000a81548160ff0219169083151502179055505f835f01819055505f83600201819055508160035f82825461067191906111ed565b925050819055506106c333837f000000000000000000000000000000000000000000000000000000000000000073ffffffffffffffffffffffffffffffffffffffff16610c279092919063ffffffff16565b3373ffffffffffffffffffffffffffffffffffffffff167f7fc4727e062e336010f2c282598ef5f14facb3de68cf8195c2f23e1454b2b74e838360405161070b9291906112c1565b60405180910390a250505061071e610ca6565b565b60035481565b600281565b5f805f9054906101000a900473ffffffffffffffffffffffffffffffffffffffff16905090565b61075a610be1565b5f8103610793576040517f1f2a200500000000000000000000000000000000000000000000000000000000815260040160405180910390fd5b60025f3373ffffffffffffffffffffffffffffffffffffffff1673ffffffffffffffffffffffffffffffffffffffff1681526020019081526020015f206003015f9054906101000a900460ff1615610817576040517f8b8e783000000000000000000000000000000000000000000000000000000000815260040160405180910390fd5b5f6002600a836108279190611280565b6108319190611280565b905060405180608001604052808381526020014281526020018281526020016001151581525060025f3373ffffffffffffffffffffffffffffffffffffffff1673ffffffffffffffffffffffffffffffffffffffff1681526020019081526020015f205f820151815f015560208201518160010155604082015181600201556060820151816003015f6101000a81548160ff0219169083151502179055509050508160035f8282546108e391906111ba565b925050819055506109373330847f000000000000000000000000000000000000000000000000000000000000000073ffffffffffffffffffffffffffffffffffffffff16610df7909392919063ffffffff16565b3373ffffffffffffffffffffffffffffffffffffffff167fb4caaf29adda3eefee3ad552a8e85058589bf834c7466cae4ee58787f70589ed83836301e133804261098191906111ba565b604051610990939291906112e8565b60405180910390a2506109a1610ca6565b50565b7f000000000000000000000000000000000000000000000000000000000000000081565b5f805f805f8060025f8873ffffffffffffffffffffffffffffffffffffffff1673ffffffffffffffffffffffffffffffffffffffff1681526020019081526020015f206040518060800160405290815f82015481526020016001820154815260200160028201548152602001600382015f9054906101000a900460ff1615151515815250509050805f0151816020015182604001516301e133808460200151610a7191906111ba565b8460600151955095509550955095505091939590929450565b5f8060025f8473ffffffffffffffffffffffffffffffffffffffff1673ffffffffffffffffffffffffffffffffffffffff1681526020019081526020015f206040518060800160405290815f82015481526020016001820154815260200160028201548152602001600382015f9054906101000a900460ff16151515158152505090508060600151610b1f575f915050610b58565b5f6301e133808260200151610b3491906111ba565b9050804210610b47575f92505050610b58565b4281610b5391906111ed565b925050505b919050565b610b65610caf565b5f73ffffffffffffffffffffffffffffffffffffffff168173ffffffffffffffffffffffffffffffffffffffff1603610bd5575f6040517f1e4fbdf7000000000000000000000000000000000000000000000000000000008152600401610bcc91906110af565b60405180910390fd5b610bde81610d36565b50565b600260015403610c1d576040517f3ee5aeb500000000000000000000000000000000000000000000000000000000815260040160405180910390fd5b6002600181905550565b610ca1838473ffffffffffffffffffffffffffffffffffffffff1663a9059cbb8585604051602401610c5a92919061131d565b604051602081830303815290604052915060e01b6020820180517bffffffffffffffffffffffffffffffffffffffffffffffffffffffff8381831617835250505050610e79565b505050565b60018081905550565b610cb7610f14565b73ffffffffffffffffffffffffffffffffffffffff16610cd561072b565b73ffffffffffffffffffffffffffffffffffffffff1614610d3457610cf8610f14565b6040517f118cdaa7000000000000000000000000000000000000000000000000000000008152600401610d2b91906110af565b60405180910390fd5b565b5f805f9054906101000a900473ffffffffffffffffffffffffffffffffffffffff169050815f806101000a81548173ffffffffffffffffffffffffffffffffffffffff021916908373ffffffffffffffffffffffffffffffffffffffff1602179055508173ffffffffffffffffffffffffffffffffffffffff168173ffffffffffffffffffffffffffffffffffffffff167f8be0079c531659141344cd1fd0a4f28419497f9722a3daafe3b4186f6b6457e060405160405180910390a35050565b610e73848573ffffffffffffffffffffffffffffffffffffffff166323b872dd868686604051602401610e2c93929190611344565b604051602081830303815290604052915060e01b6020820180517bffffffffffffffffffffffffffffffffffffffffffffffffffffffff8381831617835250505050610e79565b50505050565b5f8060205f8451602086015f885af180610e98576040513d5f823e3d81fd5b3d92505f519150505f8214610eb1576001811415610ecc565b5f8473ffffffffffffffffffffffffffffffffffffffff163b145b15610f0e57836040517f5274afe7000000000000000000000000000000000000000000000000000000008152600401610f0591906110af565b60405180910390fd5b50505050565b5f33905090565b5f819050919050565b610f2d81610f1b565b82525050565b5f602082019050610f465f830184610f24565b92915050565b5f80fd5b5f73ffffffffffffffffffffffffffffffffffffffff82169050919050565b5f610f7982610f50565b9050919050565b610f8981610f6f565b8114610f93575f80fd5b50565b5f81359050610fa481610f80565b92915050565b5f60208284031215610fbf57610fbe610f4c565b5b5f610fcc84828501610f96565b91505092915050565b5f8115159050919050565b610fe981610fd5565b82525050565b5f6080820190506110025f830187610f24565b61100f6020830186610f24565b61101c6040830185610f24565b6110296060830184610fe0565b95945050505050565b61103b81610f1b565b8114611045575f80fd5b50565b5f8135905061105681611032565b92915050565b5f6020828403121561107157611070610f4c565b5b5f61107e84828501611048565b91505092915050565b5f60208201905061109a5f830184610fe0565b92915050565b6110a981610f6f565b82525050565b5f6020820190506110c25f8301846110a0565b92915050565b5f819050919050565b5f6110eb6110e66110e184610f50565b6110c8565b610f50565b9050919050565b5f6110fc826110d1565b9050919050565b5f61110d826110f2565b9050919050565b61111d81611103565b82525050565b5f6020820190506111365f830184611114565b92915050565b5f60a08201905061114f5f830188610f24565b61115c6020830187610f24565b6111696040830186610f24565b6111766060830185610f24565b6111836080830184610fe0565b9695505050505050565b7f4e487b71000000000000000000000000000000000000000000000000000000005f52601160045260245ffd5b5f6111c482610f1b565b91506111cf83610f1b565b92508282019050808211156111e7576111e661118d565b5b92915050565b5f6111f782610f1b565b915061120283610f1b565b925082820390508181111561121a5761121961118d565b5b92915050565b5f819050919050565b5f61124361123e61123984611220565b6110c8565b610f1b565b9050919050565b61125381611229565b82525050565b5f60408201905061126c5f830185610f24565b611279602083018461124a565b9392505050565b5f61128a82610f1b565b915061129583610f1b565b92508282026112a381610f1b565b915082820484148315176112ba576112b961118d565b5b5092915050565b5f6040820190506112d45f830185610f24565b6112e16020830184610f24565b9392505050565b5f6060820190506112fb5f830186610f24565b6113086020830185610f24565b6113156040830184610f24565b949350505050565b5f6040820190506113305f8301856110a0565b61133d6020830184610f24565b9392505050565b5f6060820190506113575f8301866110a0565b61136460208301856110a0565b6113716040830184610f24565b94935050505056fea2646970667358221220c4fdcebe3850a0b42fca7ff48afd46f0d41bb16055f11c1898d2403b3133f72d64736f6c63430008180033",
  "linkReferences": {},
  "deployedLinkReferences": {},
  "immutableReferences": {
    "908": [
      {
        "length": 32,
        "start": 1125
      },
      {
        "length": 32,
        "start": 1663
      },
      {
        "length": 32,
        "start": 2290
      },
      {
        "length": 32,
        "start": 2470
      }
    ]
  },
  "inputSourceName": "project/contracts/AmuletStaking.sol",
  "buildInfoId": "solc-0_8_24-1a45fd788d5161b38cbe09b92fb004eb1e7dd148"
}